:020000020000FC
:0C0000000C9450000C94CD000C94CF0028
:040028000C94C9006B
:1000A0004FEF4DBF40E14EBF4AE040936A0043E04E
:1000B00049BF48E344BD45E045BD40E447BF40E09B
:1000C0004ABB44BB4FEF42B943B9889889988A9A92
:1000D0008B9A8C9A909A919A929A939A949A4FEFBB
:1000E00045BB05E01FEFBB2721E055276627772793
:1000F000EFEF78940E94D1000E94D5000E94D500B5
:100100000E94D5000E94D5000E94D1003E2FEFEF43
:10011000872F77270E94D1009498552748E344BD44
:100120000E94D5000E94D5000E94D5000E94D500F3
:10013000533338F50E94D100949ADE2FEFEF972FBA
:100140007727981711F43D1759F092980E941001E3
:10015000929A05E021E077271FEFBB270C947A00E5
:1001600093980E941601939A6395609300640A9590
:10017000013039F01FEFBB2721E07727949A0C94C8
:100180007A0005E021E077271FEFBB27949A0C94B3
:100190007A0048E344BD5395189510951895222789
:1001A00018951B17F1F7B0950895533350F7203089
:1001B000E1F77395753060F449B3413059F042303E
:1001C00089F04330B9F04430E9F07A950C94E800B6
:1001D00021E018951898E3B3EF7F0E940801189A60
:1001E0000C94E8001998E3B3EF7F0E940801199A74
:1001F0000C94E8001A98E3B3EF7F0E9408011A9A62
:100200000C94E8001B98E3B3EF7F0E9408011B9A4F
:100210007894552748E344BD5017F1F7F8940895B2
:10022000552748E344BD5F30F1F70895552748E36B
:0802300044BD5931F1F70895B6
:00000001FF
